:1000000045C0000060C000005EC000005CC0000091
:100010005AC0000058C0000056C0000054C0000084
:1000200052C0000050C000004EC000004CC0000094
:100030004AC0000048C0000046C0000044C00000A4
:10004000B3C0000040C000003EC000003CC0000043
:100050003AC0000006C1000036C0000034C00000F5
:1000600032C0000030C000002EC000002CC00000D4
:100070002AC0000028C0000026C0000024C00000E4
:1000800022C0000020C000001EC0000011241FBEBE
:10009000CFEFD0E1DEBFCDBF11E0A0E0B1E0E0E600
:1000A000F6E000E00BBF02C007900D92A234B1074A
:1000B000D9F721E0A2E4B1E001C01D92AA34B20751
:1000C000E1F7F7D0CBC29CCFD898D998982F907FE2
:1000D00094609BBB2BE72A95F1F7DA98D898D998CA
:1000E00020E1829FC001112484608BBB8BE78A953D
:1000F000F1F7DA980895D998982F907F95609BBB77
:100100002BE72A95F1F7DA98D99820E1829FC00170
:10011000112485608BBB8BE78A95F1F7DA980895F7
:10012000EADF83E397E00197F1F70895CF93DF9338
:10013000EC018991882311F0F3DFFBCFDF91CF91A0
:10014000089590E4899F600D1124862F8068BCCFAC
:1001500081E0BADF86E69EE00197F1F7000008959E
:1001600082E0B2DF86E69EE00197F1F7000088E2C8
:10017000ABDF9BE59A95F1F78CE0A6DF8BE58A95DE
:10018000F1F786E0A1DF9BE59A95F1F7E1CF5D9B62
:10019000FECF8CB95D9A0895CF93CCB18C2FF7DF49
:1001A0005F9A8C2FCF9108951F920F920FB60F92E6
:1001B00011240BB60F928F93EF93FF93F89488EB73
:1001C00082BF80914501882329F0809147018F5F8C
:1001D0008093470180914701823069F51092470171
:1001E00080911A01811113C0E09146018FEF8E0FAB
:1001F00080934601F0E0E05FFE4F808182BB8091FA
:100200004601811118C087E08093460114C0809197
:100210001A01813081F4E09146018E0F80934601EE
:10022000F0E0E05FFE4F808182BB80914601883024
:1002300010F0109246017894FF91EF918F910F90FA
:100240000BBE0F900FBE0F901F9018951092450196
:1002500012BA109279001092780081E0809319010F
:1002600008951F920F920FB60F9211248F939F93B0
:10027000F89484B195B190934901809348017894A2
:100280009F918F910F900FBE0F901F90189581E056
:100290008093450180931A0184E0809319010895A9
:1002A00081E08093450110921A0188E08093190142
:1002B0000895CF93DF93CDB7DEB766970FB6F89466
:1002C000DEBF0FBECDBF1FEF1ABB4ADF80EF87BB7B
:1002D00018BA81BB9FB59A689FBD9EB599619EBDB6
:1002E0001DBC1CBC91E097BF97E093BF98EB92BFF9
:1002F0001ABF89BF8EE082B982E08093610080934B
:10030000620080E487B98FEA86B9369A88E18AB9B3
:1003100086E08093950083E089B9789460E080E07E
:1003200010DF8DE0EBE2F1E08E010F5F1F4FD8018F
:1003300001900D928A95E1F7C801F8DEF80101906D
:100340000020E9F76E2F601B80E0FBDE8BE191E07F
:10035000EDDE60E081E0F5DE89E0E8E3F1E0DE017A
:100360001E9601900D928A95E1F77E012EE0E20E35
:10037000F11CC701DBDEF70101900020E9F76E2FC9
:100380006E1981E0DEDE8BE191E0D0DE412C90E859
:10039000592E90E7692E712C29E1222E312C35E55A
:1003A000C32ED12C4AEAA42EB12C88248A94912CF5
:1003B000F3DE8093420180914201813311F446DFE4
:1003C00013C080914201823321F482E080931901AD
:1003D0000BC080914201833311F459DF05C0809135
:1003E0004201843309F45CDF80911901882309F408
:1003F00088C08091190180FF27C0F801019000207A
:10040000E9F76E2F601B80E09CDE8BE191E08EDED1
:10041000F70101900020E9F76E2F6E1981E091DE5F
:100420008BE191E083DE10924401809119011092DA
:100430001901109218019FEF2FE382E091502040A4
:100440008040E1F700C000008091190181FF1DC0CC
:10045000F70101900020E9F76E2F6E1981E071DE3F
:100460008FE191E063DE81E0809344018091190186
:1004700010921901109218019FEF2FE382E0915022
:1004800020408040E1F700C000008091190182FF08
:100490001AC0F80101900020E9F76E2F601B80E080
:1004A00050DE83E291E042DE809119011092190141
:1004B000109218019FEF2FE382E09150204080407E
:1004C000E1F700C000008091190183FF1AC0F80114
:1004D00001900020E9F76E2F601B80E032DE87E29A
:1004E00091E024DE809119011092190110921801F7
:1004F0009FEF2FE382E0915020408040E1F700C061
:10050000000080914401813061F5E0914301F0E009
:10051000EE0FFF1FE050FF4F2081318140E050E09F
:10052000C301B2015DD037BD26BD86B597B5B10117
:1005300043D07093790060937800809143018F5F7E
:100540008093430180914301893010F01092430160
:100550009FEF2FEB86E0915020408040E1F700C0F4
:100560000000369A349BFECF80914801909149015A
:10057000803921E0920718F49BBC8ABC13C09C010F
:10058000205931402436310518F4BBBCAABC0AC03E
:10059000845F91408436910518F4DBBCCABC02C06C
:1005A0001BBC1ABC8FEF9FE322E08150904020409B
:1005B000E1F700C00000FCCEAA1BBB1B51E107C045
:1005C000AA1FBB1FA617B70710F0A61BB70B881FE3
:1005D000991F5A95A9F780959095BC01CD01089572
:1005E000052E97FB16F400940FD057FD05D014D0BC
:1005F00007FC02D046F408C05095409530952195EF
:100600003F4F4F4F5F4F089590958095709561953E
:100610007F4F8F4F9F4F0895A1E21A2EAA1BBB1B3D
:10062000FD010DC0AA1FBB1FEE1FFF1FA217B307BE
:10063000E407F50720F0A21BB30BE40BF50B661FD4
:10064000771F881F991F1A9469F760957095809598
:1006500090959B01AC01BD01CF010895F894FFCFA7
:100660000B024B029302BA020F037003DB03160462
:100670009080C040602030100101014F4646004F7D
:100680004E200043572000434357005374657020A9
:100690004D6F746F72203A0042757A7A6572203A13
:0206A000000058
:00000001FF
